:0C0000001EC0FECFFDCFFCCFFBCFFACF1F
:10000C00F9CFF8CFF7CFF6CFF5CFF4CFF3CFF2CFC0
:10001C00F1CFF0CFEFCFEECFEDCFECCFEBCF3F0664
:10002C005B4F666D7C077F6F00000100020034009F
:10003C000000F894EE27ECBBF1E0FBBFEBBFE5BF93
:10004C008DE0A2E0BB27ED938A95E9F780E092E082
:10005C00A0E6ED930197E9F7E6E3F0E08591959141
:10006C00009761F0A591B59105901590BF01F00135
:10007C0005900D920197E1F7FB01F0CFEFE5EDBF95
:10008C00E2E0EEBFC0EED0E000C0EFEFEABBE0E094
:10009C00EBBBEFEFE7BBE0E0E8BBE4BBE5BBE1BBF0
:1000AC00E1E0E2BBE0E0E3BFE2BFECBFEFBDEEBDE1
:1000BC00EDBDECBDE7BDE6BDEBBDEABDE9BDE8BD00
:1000CC00E2BDE5BDE4BDE3BDE9BFE5BFE4BFEAB910
:1000DC00E0E8E8B9E0E0E0BFE6B9EDB9E6BFEAE296
:1000EC00F0E0049008BAE8B3EBBBE894809968940C
:1000FC0021F820FE02C021FE01C008C05394E4E6A2
:10010C00E51509F45524A8E2B0E058D020FC02C053
:10011C0021FC01C003C0A8E2B0E050D0A52DB0E096
:10012C00EAE0F0E02AD00CD0E8BBA52DBB27EAE032
:10013C00F0E028D005D0EBBB21FA20F8D6CFFFCFCA
:10014C00E65DFF4FA491EFEFEA270895F195E19555
:10015C00F04008950024112490E1AA0FBB1F001C4D
:10016C00111C0E1A1F0A18F40E0E1F1E01C0A160DE
:10017C009A9599F7FD01D001089512D0EBDF0EF49A
:10018C00E5DF0895E894B7FF04C0B195A195B040A0
:10019C006894F7FDDBDFDEDFFD010EF4D7DF089599
:1001AC00E894F7FF02C0D2DF6894B7FF06C0B195A0
:1001BC00A195B04000F8039400FA0895109639F018
:1001CC00A8958AEF90E00197F1F71197C9F7089578
:00000001FF
