:0400000037C0FECF38
:10000400FDCFFCCFFBCFFACFF9CFF8CFF7CFF6CFA8
:10001400F5CFF4CFF3CFF2CFF1CFF0CFEFCFEECFD8
:10002400EDCFECCFEBCF412E363A413F3D003F3F81
:100034003D1E2E36395D3E363649676B6D007F585E
:100044003A3A3A46433536364F7C7E0E7678493610
:100054003636497966665669FEFDFBF7EF003200D5
:10006400E0002A00050012015C000000F894EE276D
:10007400ECBBF1E0FBBFEBBFE5BF8DE0A2E0BB272B
:10008400ED938A95E9F780E092E0A0E6ED9301977D
:10009400E9F7E2E6F0E085919591009761F0A5918A
:1000A400B59105901590BF01F00105900D9201974F
:1000B400E1F7FB01F0CFEFE5EDBFE2E0EEBFC0EE0C
:1000C400D0E000C0E0E0EABBEBBBE7BBE8BBEFEF8E
:1000D400E4BBE0E0E5BBEFEFE1BBE0E0E2BBE3BFA4
:1000E400E2BFECBFEFBDEEBDEDBDECBDE7BDE6BDCF
:1000F400EBBDEABDE9BDE8BDE2BDE5BDE4BDE3BDE0
:10010400E9BFE5BFE4BFEAB9E0E8E8B9E0E0E0BF91
:10011400E6B9EDB9E6BF552466247724E4EFF1E0AF
:100124006E167F06FCF4D301E5E0F0E039D04E2EE4
:10013400F0E0EE5EFE4FE081E5BBE52DA5E0EA9F31
:10014400F001E052FF4FDF01EE27A40DBE1FEC913A
:10015400AFEFEA27E2BBA3E0B0E030D0F301319681
:100164003F01DCCF5394E9E0E51508F45524D4CFDE
:10017400FFCFF195E195F04008950024112490E11A
:10018400AA0FBB1F001C111C0E1A1F0A18F40E0E16
:100194001F1E01C0A1609A9599F7FD01D001089531
:1001A400E894B7FF04C0B195A195B0406894F7FDF9
:1001B400E0DFE3DFFD010EF4DCDF0895109639F093
:1001C400A8958AEF90E00197F1F71197C9F7089580
:00000001FF
