:0A00000019C0FECFFDCFFCCFFBCFEF
:10000A00FACFF9CFF8CFF7CFF6CFF5CFF4CFF3CFBA
:10001A00F2CFF1CFF0CFEFCFEECFEDCFECCFEBCFEA
:10002A00C0F9A4B0999283F88090F894EE27ECBBBB
:10003A00F1E0FBBFEBBFE5BF8DE0A2E0BB27ED938C
:10004A008A95E9F780E092E0A0E6ED930197E9F757
:10005A00EFE5EDBFE2E0EEBFC0EED0E00FC01A93CD
:10006A001A2FE12FE066E7B983E08A95F1F7369A0D
:10007A00349BFECF349AE5B119910895E0E0EABBCA
:10008A00EBBBEFEFE7BBE0E0E8BBEFEFE4BBE0E0A0
:10009A00E5BBE1BBE2BBE3BFE2BFECBFEFBDEEBD38
:1000AA00EDBDECBDE7BDE6BDEBBDEABDE9BDE8BD12
:1000BA00E2BDE5BDE4BDE3BDE9BFE5BFE4BFEAB922
:1000CA00E0E8E8B9E0E6E7B9E1E8E6B9E0E1E0BF8F
:1000DA00E0E0EDB9E6BFA0E0C2DF5E2EF0E050D06E
:1000EA00EED0A0E0B0E086E993E416D1DF01CB01BF
:1000FA00E0E0F0E06FE773E45DD1AAD03F01D301FD
:10010A00E4E6F0E055D04E2ED301E4E6F0E055D017
:10011A003F01D301EAE0F0E04BD09E2ED301EAE0A2
:10012A00F0E04BD08E2EE42D15D0C79AAA9AA99842
:10013A0017D0E92D0FD0C798AA98A99A11D0E82DFF
:10014A0009D0C79AAA98A998A89AA5E0B0E076D14A
:10015A00C2CFFFCFF0E0E65DFF4F049008BA0895E2
:10016A00A898A5E0B0E06AC1F195E195F04008953C
:10017A00F09560957095E195FF4F6F4F7F4F089509
:10018A006F2F660F660B762F08950024112490E1D5
:10019A00AA0FBB1F001C111C0E1A1F0A18F40E0E00
:1001AA001F1E01C0A1609A9599F7FD01D00108951B
:1001BA0012D0EBDF0EF4D8DF0895E894B7FF04C03D
:1001CA00B195A195B0406894F7FDCEDFDEDFFD0161
:1001DA000EF4CADF0895E894F7FF02C0C5DF6894F9
:1001EA00B7FF06C0B195A195B04000F8039400FA94
:1001FA000895552342F4503811F4E0FF04C03196B3
:10020A00691F791F6BF050E8572711F45F9373C089
:10021A005F3F31F0660F000C57956795752F08956B
:10022A005F9300200AF072C06BC050E8192E1522A5
:10023A00880F991F9527550F879550E8072E052295
:10024A00660F771F7527550F67950895689401C043
:10025A00E8945F93F2DF703818F07F3F08F44BC0E0
:10026A0056E1571BAAF4519558300EF4593030F024
:10027A00EFEFFFEF6FEF7FE777F91AC07727552384
:10028A00B9F0EE0FFF1F661F771F5A95D1F710C0FE
:10029A007727583028F0EF2FF62F672F5850F9CFCD
:1002AA00552331F076956795F795E7955A95D1F7E5
:1002BA0000200AF45DDF5F910895689401C0E89414
:1002CA00309760407040B1F0002426F0772312F492
:1002DA0000944EDF172E7EE1112032F07A95EE0F50
:1002EA00FF1F661F111CF9CFEF2FF62F612D5F93A9
:1002FA008ADF5F910895EE27FF27BF015F91089576
:10030A00EFEFFFEF6FE77FEF5F910895EFEFFFEFFA
:10031A006FE77FE75F9108955F9387DF703859F33E
:10032A00903849F301240894791F23F424F3002018
:10033A003AF3ECCF0F921F932F933F934F931127CA
:10034A0022279927689FA0018F9F302D410D591FA1
:10035A006B9F300D411D591F8E9F27D0BF9F25D0FF
:10036A006A9F23D0BE9F1DD0AF9F1BD0AE9F110D99
:10037A00291F391F491F591FE32FF42F652F522FA9
:10038A004F913F912F911F910F9066232AF0550F9D
:10039A00EE1FFF1F661F02C073954BF22ADF5F91A3
:1003AA000895100D211D391F02C0200D311D491F4E
:1003BA00591F08955F9339DF703821F411200AF428
:1003CA009FCFA4CF903809F496CF01240894970BB5
:1003DA001BF4D4F30020F3CF792F1F932F933F936D
:1003EA004F931124112722273327A90190E2AE1730
:1003FA00BF078607410730F0AE1BBF0B860B410BC8
:10040A00089401C08894551F221F331F111CAA1F6C
:10041A00BB1F881F441F9A9551F7F901612D4F910F
:10042A003F912F911F91662332F0550FEE1FFF1F48
:10043A00661F7A954BF2DDDE5F910895109639F0CA
:10044A00A8958AEF90E00197F1F71197C9F70895F7
:00000001FF
