:0A0000001CC0FECFFDCFFCCFFBCFEC
:10000A00FACFF9CFF8CFF7CFF6CFF5CFF4CFF3CFBA
:10001A00F2CFF1CFF0CFEFCFEECFEDCFECCFEBCFEA
:10002A00C0F9A4B0999283F880908883C6A1868E7D
:10003A00F894EE27ECBBF1E0FBBFEBBFE5BF8DE028
:10004A00A2E0BB27ED938A95E9F780E092E0A0E66B
:10005A00ED930197E9F7EFE5EDBFE2E0EEBFC0EE01
:10006A00D0E000C0E0E0EABBEBBBE7BBE8BBEFE0F7
:10007A00E4BBE0EFE5BBEFEFE1BBE2BBE0E0E3BFEF
:10008A00E2BFECBFEFBDEEBDEDBDECBDE7BDE6BD29
:10009A00EBBDEABDE9BDE8BDE2BDE5BDE4BDE3BD3A
:1000AA00E9BFE5BFE4BFEAB9E0E8E8B9E0E0E0BFEC
:1000BA00E6B9EDB9E6BF5524EEEF4AD011F4ECE00B
:1000CA000BC04DD011F4EDE007C04CD011F4EEE0B6
:1000DA0003C04BD011F4EFE05E2EEDEF39D011F4EE
:1000EA00E8E00BC03CD011F4E9E007C03BD011F4C2
:1000FA00EAE003C03AD011F4EBE05E2EEBEF28D031
:10010A0011F4E4E00BC02BD011F4E5E007C02AD0CB
:10011A0011F4E6E003C029D011F4E7E05E2EE7EF20
:10012A0017D011F455240CC01AD011F4E1E007C01D
:10013A0019D011F4E2E003C018D011F4E3E05E2E06
:10014A00E52DF0E0E65DFF4F049002BAB5CFFFCF90
:10015A00E5BBE3B3E07F4E2EE0EEE4150895E0ED53
:10016A00E4150895E0EBE4150895E0E7E415089531
:00000001FF
