:0C00000032C0FECFFDCFFCCFFBCFFACF0B
:10000C00F9CFF8CFF7CFF6CFF5CFF4CFF3CFF2CFC0
:10001C00F1CFF0CFEFCFEECFEDCFECCFEBCF102772
:10002C00E80364000A000100001000011000010048
:10003C00000C07000600C9074553434F4D0080C014
:10004C0004000A003C000100E40040000200E6004D
:10005C0042000200E8004A000000F894EE27ECBBD6
:10006C00F1E0FBBFEBBFE5BF8DE0A2E0BB27ED935A
:10007C008A95E9F780E092E0A0E6ED930197E9F725
:10008C00ECE4F0E085919591009761F0A591B59124
:10009C0005901590BF01F00105900D920197E1F7C5
:1000AC00FB01F0CFEFE5EDBFE2E0EEBFC0EED0E03C
:1000BC0015C1E8D1E12FE066E7B983E08A95F1F745
:1000CC00369A349BFECF349AE5B1DAC1EBE0DDD140
:1000DC00A4E4B0E09ED10895A0E0EBDF5E2EF0E04A
:1000EC0050D2F1D2AAE9B9E989EB9FE319D3D0D167
:1000FC00D8D1E0D163D309F008F402C0DBD1C8D168
:10010C00D0D1E0E0F0E060E271E40AD3A5D23F0187
:10011C00D301D5D14ED29E2ED301D1D152D23F0193
:10012C00D301D0D146D24E2ED301CFD18E2EEAE0C0
:10013C00CFD1A92DA05D4FD1EBE0CAD1A42DA05DEC
:10014C004AD1ECE0C5D1AEE246D1EDE0C1D1A82D4B
:10015C00A05D41D1EEE0BCD1AFED3DD1EFE0B8D127
:10016C00A3E439D10895F3D18D013E814F81588597
:10017C00E0E08BD1DA01E8EEF3E0ADD1E8EEF3E0AC
:10018C001DD2AF01E1E081D1DA0199D1A4D197D18F
:10019C0015D2AF01E2E079D1DA01A3D1E3E075D158
:1001AC00DA01A4D1E4E071D1ADE215D1E5E06DD175
:1001BC00A2D1E6E06AD1A32FA5D1A6D1E7E065D103
:1001CC00ADE209D1E8E061D1D8018BD1E9E05DD194
:1001DC00D8018CD1C3D129960895BBD11A2F0C818B
:1001EC003D81E0E075D187D1E1E072D1A32F8AD1B6
:1001FC008BD1E2E06DD1AAE3EED0E3E069D1A02F80
:10020C0086D1E4E065D1A02F7DD17ED1E5E060D12F
:10021C00AAE3E1D0E6E05CD1A12F79D1E7E058D197
:10022C00A12F70D171D19CD126960895809B0FC0BF
:10023C00819902C070D107C0829902C074D103C0E9
:10024C00839904C0C394ACE2B1E0D8D20EC08199BA
:10025C0002C0B39407C0829902C0A39403C08399CF
:10026C0004C0D394ACE2B1E0C9D2E091E500EF5FF9
:10027C00E093E500A091E500A43620F0E0E0E093E7
:10028C00E500D394EBE3ED1510F4DD24A394EBE33C
:10029C00EA1510F4AA24B394E7E1EB1510F4BB248F
:1002AC00C394EEE1EC1518F4E1E0CE2E3CD1A09114
:1002BC00E400AD3020F0E1E0E093E4002CD1A0911B
:1002CC00E600B091E700A433E8E0BE0730F0E9ECBB
:1002DC00F7E0E093E600F093E7000895E0E0EABB76
:1002EC00EBBBEFEFE7BBE0E0E8BBE4BBE5BBE1BB9E
:1002FC00EFEFE2BBE0E0E3BFE2BFECBFEFBDEEBD72
:10030C00EDBDECBDE7BDE6BDEBBDEABDE9BDE8BDAD
:10031C00E2BDE5BDE4BDE3BDE9BFE5BFE4BFEAB9BD
:10032C00E0E8E8B9E0E6E7B9E1E8E6B9E0E1E0BF2A
:10033C00E0E0EDB9E6BFA0E17BD0CEDEC7DE76DF34
:10034C00BA92AA92AD2D49DFE091E600F091E70058
:10035C00FA93EA93E091E400EA93AC2DBB2703DF18
:10036C00ECCFFFCF8FD0E8B3EF70AE2FE12FE07F53
:10037C00EA2BE8BBDED0C29ADCD0C298DAD080C0BF
:10038C00AA93A881EFDFE881E295E883A881EADFF0
:10039C0081E18A95F1F721960895DDD01A2F0A8113
:1003AC00E12FF0E0E851FF4FE081E00FAE2FE8DFE6
:1003BC000093EC001093ED00D5D023960895A2E0A5
:1003CC00BCD0ACE0DDDFA1E0B8D0E0E0E093ED0024
:1003DC00E093EC00089556D01A3031F0E091EE0025
:1003EC00A091EC00AE1758F0E0E0EA93A091ED007C
:1003FC00AF5FA093ED00D1DF1A3009F441C0E0915A
:10040C00EC00EF5FE093EC00C09AA12FB9DFC0982D
:10041C0037C09FD09D01F9012F5F3F4FE4911E2FF4
:10042C00E03019F0A12FD7DFF6CF9AD0249608959B
:10043C0029D0E7B3E06FE7BBBA9AB89AB99AC298D9
:10044C00C098C1981093EE00E12FE058E093EA00B9
:10045C00E12FE054E093EB00A4E1B0E0CFD171D0F8
:10046C0070D06FD0A0E27EDF81E28A95F1F7A8E22E
:10047C0087DFA4E085DFA5E883DFA6E081DF9FDFCF
:10048C00199108951A931A2F0895EA93A0E085CF35
:10049C00E093E000F093E1006093E2007093E300DE
:1004AC000895A091E000B091E1008091E20090915C
:1004BC00E3000895E0E0F0E066EC72E40895E4E611
:1004CC00F0E00895EAE0F0E00895FCDF7AD00895BA
:1004DC00EA93A1E062CF5AD0E05DAE2F7CDFDA0167
:1004EC000895F0DF53D0E05DAE2F75CFEBDF66D013
:1004FC00E05DAE2F70CFA32FB0E0E4DF5AD0E05D0B
:10050C00AE2F69CFBB27E1CFE05DAE2F64CFB0E05B
:10051C00D9DF4FD0F9CFA6EEB0E0ED91FD91319639
:10052C00FE93EE930895E091E400EF5FE093E40016
:10053C00089582E08A95F1F7089522DFA3E0B0E0F8
:10054C005DC1A0E30FDF81E28A95F1F708955A931C
:10055C004A933A932A931A930A9308955D814C8196
:10056C003B812A81198108810895F195E195F0402C
:10057C000895F09560957095E195FF4F6F4F7F4F03
:10058C0008956F2F660F660B762F089500241124A3
:10059C0090E1AA0FBB1F001C111C0E1A1F0A18F4A5
:1005AC000E0E1F1E01C0A1609A9599F7FD01D00196
:1005BC00089515D0EBDF0EF4D8DF0895E7DFFD01C9
:1005CC000895E894B7FF04C0B195A195B040689424
:1005DC00F7FDCBDFDBDFFD010EF4C7DF0895E894F8
:1005EC00F7FF02C0C2DF6894B7FF06C0B195A195B2
:1005FC00B04000F8039400FA0895552342F45038A3
:10060C0011F4E0FF04C03196691F791F6BF050E8BC
:10061C00572711F45F9373C05F3F31F0660F000CE6
:10062C0057956795752F08955F9300200AF072C057
:10063C006BC050E8192E1522880F991F9527550F5E
:10064C00879550E8072E0522660F771F7527550FE3
:10065C0067950895689401C0E8945F93F2DF703851
:10066C0018F07F3F08F44BC056E1571BAAF4519584
:10067C0058300EF4593030F0EFEFFFEF6FEF7FE7AB
:10068C0077F91AC077275523B9F0EE0FFF1F661FB5
:10069C00771F5A95D1F710C07727583028F0EF2FD5
:1006AC00F62F672F5850F9CF552331F07695679573
:1006BC00F795E7955A95D1F700200AF45ADF5F9128
:1006CC000895689401C0E894309760407040B1F090
:1006DC00002426F0772312F400944BDF172E7EE1D2
:1006EC00112032F07A95EE0FFF1F661F111CF9CF07
:1006FC00EF2FF62F612D5F938ADF5F910895EE2720
:10070C00FF27BF015F910895EFEFFFEF6FE77FEFDA
:10071C005F910895EFEFFFEF6FE77FE75F9108952B
:10072C005F9387DF703859F3903849F301240894AC
:10073C00791F23F424F300203AF3ECCF0F921F938C
:10074C002F933F934F93112722279927689FA0013E
:10075C008F9F302D410D591F6B9F300D411D591F1F
:10076C008E9F27D0BF9F25D06A9F23D0BE9F1DD0C0
:10077C00AF9F1BD0AE9F110D291F391F491F591F49
:10078C00E32FF42F652F522F4F913F912F911F91F3
:10079C000F9066232AF0550FEE1FFF1F661F02C035
:1007AC0073954BF22ADF5F910895100D211D391FAF
:1007BC0002C0200D311D491F591F089599239AF02D
:1007CC00772342F0971748F029F4AE17BF07860736
:1007DC0020F031F098948894089598940894089592
:1007EC001894889408957723C2F7971798F3A9F76C
:1007FC00EA17FB07680788F399F3ECCF109639F0EA
:10080C00A8958AEF90E00197F1F71197C9F7089531
:00000001FF
