:0400000019C0FECF56
:10000400FDCFFCCFFBCFFACFF9CFF8CFF7CFF6CFA8
:10001400F5CFF4CFF3CFF2CFF1CFF0CFEFCFEECFD8
:10002400EDCFECCFEBCFC0F9A4B0999283F88090D8
:10003400F894EE27ECBBF1E0FBBFEBBFE5BF8DE02E
:10004400A2E0BB27ED938A95E9F780E092E0A0E671
:10005400ED930197E9F7EFE5EDBFE2E0EEBFC0EE07
:10006400D0E00FC01A931A2FE12FE066E7B983E0BE
:100074008A95F1F7369A349BFECF349AE5B11991FB
:100084000895E0E0EABBEBBBEFEFE7BBE0E0E8BBE1
:10009400EFEFE4BBE0E0E5BBE1BBE2BBE3BFE2BF03
:1000A400ECBFEFBDEEBDEDBDECBDE7BDE6BDEBBD08
:1000B400EABDE9BDE8BDE2BDE5BDE4BDE3BDE9BF20
:1000C400E5BFE4BFEAB9E0E8E8B9E0E6E7B9E1E8AA
:1000D400E6B9E0E1E0BFE0E0EDB9E6BFA0E0C2DFF1
:1000E4005E2EA52DE2E3EA9FF001DF01EFEFF0E0E1
:1000F4003CD04E2EA42DB0E0EAE0F0E036D07E2EC7
:10010400A42DBB27EAE0F0E035D06E2EE72D10D009
:10011400C798A99AA898A5E0B0E048D0E62D08D0E1
:10012400C79AA998A89AA5E0B0E040D0D7CFFFCF4E
:10013400F0E0E65DFF4F049008BA0895F195E1956B
:10014400F04008950024112490E1AA0FBB1F001C65
:10015400111C0E1A1F0A18F40E0E1F1E01C0A160F6
:100164009A9599F7FD01D001089512D0EBDF0EF4B2
:10017400E5DF0895E894B7FF04C0B195A195B040B8
:100184006894F7FDDBDFDEDFFD010EF4D7DF0895B1
:10019400E894F7FF02C0D2DF6894B7FF06C0B195B8
:1001A400A195B04000F8039400FA0895109639F030
:1001B400A8958AEF90E00197F1F71197C9F7089590
:00000001FF
