:0A0000001DC0FECFFDCFFCCFFBCFEB
:10000A00FACFF9CFF8CFF7CFF6CFF5CFF4CFF3CFBA
:10001A00F2CFF1CFF0CFEFCFEECFEDCFECCFEBCFEA
:10002A00000103070F1F3F7FFF000900E0002A00BD
:10003A000000F894EE27ECBBF1E0FBBFEBBFE5BF95
:10004A008DE0A2E0BB27ED938A95E9F780E092E084
:10005A00A0E6ED930197E9F7E4E3F0E08591959145
:10006A00009761F0A591B59105901590BF01F00137
:10007A0005900D920197E1F7FB01F0CFEFE5EDBF97
:10008A00E2E0EEBFC0EED0E00FC01A931A2FE12FC4
:10009A00E066E7B983E08A95F1F7369A349BFECF9A
:1000AA00349AE5B119910895E0E0EABBEBBBEFEFB2
:1000BA00E7BBE0E0E8BBE4BBE5BBEFEFE1BBE0E0B8
:1000CA00E2BBE3BFE2BFECBFEFBDEEBDEDBDECBDF1
:1000DA00E7BDE6BDEBBDEABDE9BDE8BDE2BDE5BDF4
:1000EA00E4BDE3BDE9BFE5BFE4BFEAB9E0E8E8B9CA
:1000FA00E0E6E7B9E1E8E6B9E0E1E0BFE0E0EDB962
:10010A00E6BFA0E024D04E2EA1E021D07E2E5524B9
:10011A00E8E0E515A0F06624451420F01FD0E8BBFE
:10012A00E1E06E2E751420F019D0E2BBE1E06E2EEC
:10013A00662019F0A9E1B0E041D05394E9CFAAE0D2
:10014A00B0E03CD0E0E0E8BBE2BBDBCFFFCF9DDF15
:10015A00F0E0DF01EFE1F0E01ED00895E52DF0E0D8
:10016A00E052FF4FE0810895F195E195F04008953E
:10017A000024112490E1AA0FBB1F001C111C0E1AA7
:10018A001F0A18F40E0E1F1E01C0A1609A9599F756
:10019A00FD01D001089504D0EBDF0EF4E5DF0895E8
:1001AA00E894F7FF02C0E0DF6894B7FF06C0B19594
:1001BA00A195B04000F8039400FA0895109639F01A
:1001CA00A8958AEF90E00197F1F71197C9F708957A
:00000001FF
