:020000001EC020
:10000200FECFFDCFFCCFFBCFFACFF9CFF8CFF7CFA2
:10001200F6CFF5CFF4CFF3CFF2CFF1CFF0CFEFCFD2
:10002200EECFEDCFECCFEBCFC0F9A4B0999283F82D
:100032008090FFFF0200040034000000F894EE27D5
:10004200ECBBF1E0FBBFEBBFE5BF8DE0A2E0BB275D
:10005200ED938A95E9F780E092E0A0E6ED930197AF
:10006200E9F7E6E3F0E085919591009761F0A591BB
:10007200B59105901590BF01F00105900D92019781
:10008200E1F7FB01F0CFEFE5EDBFE2E0EEBFC0EE3E
:10009200D0E000C0EFEFEABBE0E4EBBBEFEFE7BB81
:1000A200E0E4E8BBEFEFE4BBE0E4E5BBE0E0E1BBAA
:1000B200EFEFE2BBE0E0E3BFE2BFECBFEFBDEEBDBE
:1000C200EDBDECBDE7BDE6BDEBBDEABDE9BDE8BDFA
:1000D200E2BDE5BDE4BDE3BDE9BFE5BFE4BFEAB90A
:1000E200E0E8E8B9E0E0E0BFE6B9EDB9E6BF6624D2
:1000F2007724EFEF4E2EE0B34E22EFEFE41509F432
:10010200452C541479F0EEEFE41541F4662477247B
:100112002DD00BBA2BD008BA29D005BA542CA8E29C
:10012200B0E04CD0EBEFE41511F4541409F01CC00C
:10013200E8E5F2E0E619F70991F01CD01FD008BA01
:1001420019D021D01BD00BBA15D01DD034D0E65D0A
:10015200FF4F049005BAF30131963F0102C06624B5
:100162007724A4E6B0E02AD0C4CFFFCFEAE2F0E0E1
:1001720004900895D301E4E6F0E0089509D0E65D25
:10018200FF4F0490089517D0DF01EAE0F0E00895F0
:100192000024112490E1AA0FBB1F001C111C0E1A8F
:1001A2001F0A18F40E0E1F1E01C0A1609A9599F73E
:1001B200FD01D0010895ECDFFD010895109639F09C
:1001C200A8958AEF90E00197F1F71197C9F7089582
:00000001FF
