:0E00000019C0FECFFDCFFCCFFBCFFACFF9CF5A
:10000E00F8CFF7CFF6CFF5CFF4CFF3CFF2CFF1CFC6
:10001E00F0CFEFCFEECFEDCFECCFEBCFC0F9A4B05A
:10002E00999283F88090F894EE27ECBBF1E0FBBF39
:10003E00EBBFE5BF8DE0A2E0BB27ED938A95E9F714
:10004E0080E092E0A0E6ED930197E9F7EFE5EDBFD2
:10005E00E2E0EEBFC0EED0E00FC01A931A2FE12FF0
:10006E00E066E7B983E08A95F1F7369A349BFECFC6
:10007E00349AE5B119910895E0E0EABBEBBBEFEFDE
:10008E00E7BBE0E0E8BBEFEFE4BBE0E0E5BBE1BBE4
:10009E00EFEFE2BBE0E0E3BFE2BFECBFEFBDEEBDD2
:1000AE00EDBDECBDE7BDE6BDEBBDEABDE9BDE8BD0E
:1000BE00E2BDE5BDE4BDE3BDE9BFE5BFE4BFEAB91E
:1000CE00E0E8E8B9E0E6E7B9E1E8E6B9E0E1E0BF8B
:1000DE00E0E0EDB9E6BFA0E0C0DF5E2EF0E077D045
:1000EE0015D1A0E0B0E080EC9FE392D1D8D03F01D3
:1000FE00E2E3F0E0E615F7050CF43F01809B02C049
:10010E00E6EC18C0F30163D001D1A6E6B6E686EEA2
:10011E009FE37ED1A0E0B0E080E092E42AD1E093AC
:10012E00E000F093E1006093E2007093E300B7D03B
:10013E003F01EEE8BE2ED301E4E6F0E060D04E2E95
:10014E00D301E4E6F0E060D03F01D301EAE0F0E055
:10015E0056D09E2ED301EAE0F0E056D08E2EB8BADD
:10016E00C79AAB98AA98A998A89A1AD0E82D1BD02E
:10017E00AA98A99AA89814D0E92D15D0AA9AA99848
:10018E00A8980ED0E42DF0E0E65DFF4F049008BA7B
:10019E00C79AAB9AAA98A998A89802D09CCFFFCFDD
:1001AE00A3E0B0E083C1F0E0E65DFF4F049008BA33
:1001BE00C79AAB980895F195E195F0400895F095A2
:1001CE0060957095E195FF4F6F4F7F4F08956F2F9C
:1001DE00660F660B762F08950024112490E1AA0F66
:1001EE00BB1F001C111C0E1A1F0A18F40E0E1F1E28
:1001FE0001C0A1609A9599F7FD01D001089512D022
:10020E00EBDF0EF4D8DF0895E894B7FF04C0B19584
:10021E00A195B0406894F7FDCEDFDEDFFD010EF450
:10022E00CADF0895E894F7FF02C0C5DF6894B7FFF0
:10023E0006C0B195A195B04000F8039400FA089558
:10024E00552342F4503811F4E0FF04C03196691F73
:10025E00791F6BF050E8572711F45F93C8C05F3FCA
:10026E0031F0660F000C57956795752F08955F93C3
:10027E0000200AF0C7C0C0C050E8192E1522880F02
:10028E00991F9527550F879550E8072E0522660F63
:10029E00771F7527550F67950895689401C0E894E8
:1002AE005F93F2DF703818F07F3F08F4A0C056E17C
:1002BE00571BAAF4519558300EF4593030F0EFEF29
:1002CE00FFEF6FEF7FE777F91AC077275523B9F065
:1002DE00EE0FFF1F661F771F5A95D1F710C07727B5
:1002EE00583028F0EF2FF62F672F5850F9CF55239F
:1002FE0031F076956795F795E7955A95D1F70020E9
:10030E000AF45DDF5F910895689401C0E894309718
:10031E0060407040B1F0002426F0772312F4009470
:10032E004EDF172E7EE1112032F07A95EE0FFF1F71
:10033E00661F111CF9CFEF2FF62F612D5F938ADF09
:10034E005F9108954F93AF01FD01DA01AB01BC013E
:10035E00CA01402D012C142E4F910895EA0FFB1F58
:10036E00681F0895E095F0956095EF5FFF4F6F4F12
:10037E0008955F9381DF903839F1703821F1572F4E
:10038E00591B2BF112F4DEDFFACF583118F0AA27E1
:10039E00BB278827583028F0AB2FB82F8827585006
:1003AE00F9CF552329F08695B795A7955A95D9F784
:1003BE00502D512572F0D2DF38F46795F795E795F9
:1003CE00739513F41FC0BEDF45DF5F910895D8F714
:1003DE00FBCFEA1BFB0B680B51F010F40094C2DF4D
:1003EE00662392F3EE0FFF1F661F7A95CBF7EE276B
:1003FE00FF27BF015F910895EFEFFFEF6FE77FEFEC
:10040E005F910895EFEFFFEF6FE77FE75F9108953C
:10041E005F9332DF703859F3903849F30124089412
:10042E00791F23F424F300203AF3ECCF0F921F939D
:10043E002F933F934F93112722279927689FA0014F
:10044E008F9F302D410D591F6B9F300D411D591F30
:10045E008E9F27D0BF9F25D06A9F23D0BE9F1DD0D1
:10046E00AF9F1BD0AE9F110D291F391F491F591F5A
:10047E00E32FF42F652F522F4F913F912F911F9104
:10048E000F9066232AF0550FEE1FFF1F661F02C046
:10049E0073954BF2D5DE5F910895100D211D391F16
:1004AE0002C0200D311D491F591F0895109639F0B5
:1004BE00A8958AEF90E00197F1F71197C9F7089583
:00000001FF
