:0A00000014C0FECFFDCFFCCFFBCFF4
:10000A00FACFF9CFF8CFF7CFF6CFF5CFF4CFF3CFBA
:10001A00F2CFF1CFF0CFEFCFEECFEDCFECCFEBCFEA
:10002A00F894EE27ECBBF1E0FBBFEBBFE5BF8DE038
:10003A00A2E0BB27ED938A95E9F780E092E0A0E67B
:10004A00ED930197E9F7EFE5EDBFE2E0EEBFC0EE11
:10005A00D0E000C0E0E0EABBEBBBEFEFE7BBE8BBF8
:10006A00E0E0E4BBE5BBEFEFE1BBE0E0E2BBE3BF0E
:10007A00E2BFECBFEFBDEEBDEDBDECBDE7BDE6BD39
:10008A00EBBDEABDE9BDE8BDE2BDE5BDE4BDE3BD4A
:10009A00E9BFE5BFE4BFEAB9E0E8E8B9E0E0E0BFFC
:1000AA00E6B9EDB9E6BFE8B3EF5FE8BBE2B3E1500A
:1000BA00E2BBACE2B1E002D0F6CFFFCF109639F046
:1000CA00A8958AEF90E00197F1F71197C9F708957B
:00000001FF
