:0400000014C0FECF5B
:10000400FDCFFCCFFBCFFACFF9CFF8CFF7CFF6CFA8
:10001400F5CFF4CFF3CFF2CFF1CFF0CFEFCFEECFD8
:10002400EDCFECCFEBCFF894EE27ECBBF1E0FBBFC8
:10003400EBBFE5BF8DE0A2E0BB27ED938A95E9F71E
:1000440080E092E0A0E6ED930197E9F7EFE5EDBFDC
:10005400E2E0EEBFC0EED0E01DC01A931A2FE12FEC
:10006400F0E0E130A0E0FA0711F4E3E011C0E2307F
:10007400A0E0FA0711F4ECE00BC0E430A0E0FA07CA
:1000840011F4E2E005C0E830A0E0FA0709F4E1E089
:1000940019910895E0E0EABBEBBBE7BBEFEFE8BBE7
:1000A400E0E0E4BBE5BBEFEFE1BBE0E0E2BBE3BFD4
:1000B400E2BFECBFEFBDEEBDEDBDECBDE7BDE6BDFF
:1000C400EBBDEABDE9BDE8BDE2BDE5BDE4BDE3BD10
:1000D400E9BFE5BFE4BFEAB9E0E8E8B9E0E0E0BFC2
:1000E400E6B9EDB9E6BF55244424E0E46E2EE6B348
:1000F400AFEFEA277E2EE1E08E2EE0E4E71519F457
:10010400442455240AC0E0E2E71511F0E61539F459
:10011400E0E0E51510F4E0E201C0E0E46E2EE0E179
:10012400E71511F0E615E9F4E0E16E2E451468F4E4
:10013400E42DF0E0E052FF4FA0818FDFE2BBA8EE98
:10014400B3E034D0439488240BC0541449F4E0E061
:10015400E51520F4E0E26E2E442402C0E0E46E2EA5
:100164001CC0E0E4E61529F4791419F0EAE05E16FF
:1001740008F013C0E1E0E71549F0E4E0E71531F0D9
:10018400E8E0E71519F0E2E0E71539F4E52DF0E0D1
:10019400E052FF4F70825394972C882011F0E0E0D6
:1001A400E2BBA8E2B0E002D0A2CFFFCF109639F0B4
:1001B400A8958AEF90E00197F1F71197C9F7089590
:00000001FF
